S01200006D6173746572746573742E73726563C6
S113000098100020B5270000492800004928000066
S113001000000000000000000000000000000000DC
S1130020000000000000000000000000492800005B
S113003000000000000000004928000049280000DA
S113004049280000492800004928000049280000E8
S113005049280000492800004928000049280000D8
S113006049280000492800004928000049280000C8
S113007049280000492800004928000049280000B8
S11300804928000049280000492800000000000019
S11300900000000049280000492800004928000009
S11300A04928000010B5064C2378002B07D1054BD6
S11300B0002B02D0044800E000BF0123237010BDD0
S11300C01800002000000000BC2D0000084B10B5F3
S11300D0002B03D00749084800E000BF0748036825
S11300E0002B00D110BD064B002BFBD09847F9E73D
S11300F0000000001C000020BC2D0000BC2D0000EE
S11301000000000080B582B000AF78607B68802278
S11301101A707B6800225A707B6801229A707B688F
S11301200022DA70C046BD4602B080BD80B584B0FE
S113013000AF02003960FB1D1A700C23FB18180075
S1130140104B98470C23FB1880221A703B681A78CE
S11301500C23FB185A703B685A780C23FB189A70CE
S11301603B689A780C23FB18DA700C23FA18FB1DF1
S11301701B7811001800044B9847C046BD4604B0D4
S113018080BDC046050100002D27000080B582B067
S113019000AF78607B6800221A70C046BD4602B08A
S11301A080BD80B586B000AFF860B9607A60162370
S11301B0FB1800221A80BB683B61BB685A08FB68C5
S11301C09A4201D2402326E0BB685B083B610AE007
S11301D03A69FB68D31A3B611623FB181A88162365
S11301E0FB1801321A803A69FB689A42F0D216234E
S11301F0FB181622BA181288013A1A801623FB1823
S11302001B88FF2B01D9402305E07B681622BA180E
S113021012881A8000231800BD4606B080BD000075
S113022080B584B000AF0200FB1D1A70BB1D0A1C10
S11302301A701A4B1B7801225340DBB2002B03D1F6
S1130240BB1D1B78002B1BD00C23FB181800144B70
S113025098470C23FB18FA1D12781A700C23FB180C
S113026019000C200F4B98470C200F4B98470B4B51
S1130270FA1D12785A70094B01221A70002308E003
S1130280064B5B78FA1D12789A4201D1002300E0F4
S11302901D231800BD4604B080BDC04634000020B4
S11302A08D010000412400008524000080B582B047
S11302B000AF78600A00FB1C1A707B684D4A9342B9
S11302C03FD04C4A934206D84B4A93420FD04B4AF4
S11302D0934221D089E04A4A934200D15BE0494AE3
S11302E0934200D16CE0484A93423FD07DE0FB1C2E
S11302F01B78012B0AD002DC002B05D075E0022B01
S113030006D0032B06D070E0404B6FE0404B6DE00D
S1130310404B6BE0404B69E0FB1C1B78012B0AD07F
S113032002DC002B05D060E0022B06D0032B06D0A4
S11303305BE003235AE0394B58E0394B56E0394B24
S113034054E0FB1C1B78012B0AD002DC002B05D0E7
S11303504BE0022B06D0032B06D046E0324B45E09F
S1130360324B43E0324B41E0324B3FE0FB1C1B7805
S1130370012B0AD002DC002B05D036E0022B06D07C
S1130380032B06D031E02C4B30E02C4B2EE02C4BD1
S11303902CE02C4B2AE0FB1C1B78012B0AD002DC3E
S11303A0002B05D021E0022B06D0032B06D01CE045
S11303B0254B1BE0254B19E0254B17E0254B15E099
S11303C0FB1C1B78012B0AD002DC002B05D00CE0AF
S11303D0022B06D0032B06D007E01F4B06E01F4B71
S11303E004E01F4B02E01F4B00E000231800BD4651
S11303F002B080BD0010004200080042000C004220
S113040000180042001C00420014004203000400D3
S113041003000500030006000300070003000100B9
S113042003001E0003001F0003000800030009006E
S113043003000A0003000B00030010000300110076
S1130440030012000300130003000C0003000D005E
S113045003000E0003000F00030016000300170042
S1130460030018000300190090B58BB000AF78604A
S11304700C23FB180F4A13CA13C313CA13C3002354
S11304807B620EE00C23FB187A6A9200D3581A00A0
S11304907B689A4202D17B6ADBB206E07B6A013355
S11304A07B627B6A052BEDD900231800BD460BB097
S11304B090BDC046442D000080B582B000AF786086
S11304C07B6880221A707B6800225A707B68012244
S11304D09A707B680022DA70C046BD4602B080BDC7
S11304E080B584B000AF0200FB1D1A700F23FB1807
S11304F0FA1D1278D2091A700E23FB18FA1D12780D
S113050052091A700D4BBB600F23FB181B78002B8C
S11305100FD10F23FB181B789B0010229446BC4478
S11305206344083B1A680E23FB181B78DB01D318BD
S113053000E000231800BD4604B080BD0044004123
S113054080B586B000AF0200FB1D1A70FB1D1B783E
S11305501800194B984703007B61FB1D1B781F2271
S113056013403B617A6940213B69D3185B181B78BF
S1130570DBB21A000123134001D1802318E03B6948
S11305805B087A693021D3185B181B78DBB2FB60F7
S11305903B690122134006D0FB681B09DBB20F2222
S11305A01340DBB204E0FB68DBB20F221340DBB282
S11305B01800BD4606B080BDE104000080B582B0DD
S11305C000AF0200FB1D1A70FB1D1B781800034BC3
S11305D0984703001800BD4602B080BDE104000046
S11305E080B584B000AF0200FB1D1A70BB1D0A1C4D
S11305F01A70FB1D1B7818000D4B98470300FB6015
S1130600FB1D1B781F22134001229A401300BB607C
S1130610BB1D1B78002B03D0FB68BA689A6102E00B
S1130620FB68BA685A61C046BD4604B080BDC04686
S1130630BD05000080B582B000AF78607B68002201
S11306401A70C046BD4602B080BD000080B582B0BD
S113065000AF02003960FB1D1A70FB1D1B78012BD3
S11306600AD0022B0FD0002B14D10E4B0D4A9169E6
S11306703A680A439A610FE00A4B0A4AD1693A6818
S11306800A43DA6108E0074B064A116A3A680A43EA
S11306901A6201E0172300E000231800BD4602B0EF
S11306A080BDC0460004004080B500AF054B9B7878
S11306B0DBB21A00022313405A1E9341DBB2180026
S11306C0BD4680BD0020004180B584B000AF786095
S11306D07B681B68FB60FB689B7BDBB21A00022310
S11306E013405A1E9341DBB21800BD4604B080BDCE
S11306F080B584B000AF78607B681B68FB60FB68E2
S11307009B7BDBB21A00012313405A1E9341DBB2D8
S11307101800BD4604B080BD80B584B000AF7860D9
S11307207B681B68FB60FB689B7BDBB21A000423BD
S113073013405A1E9341DBB21800BD4604B080BD7D
S113074080B584B000AF78600A00BB1C1A807B6857
S11307501B68FB607B6818000B4B984703001A006A
S113076001235340DBB2002B01D0052307E0BB1C5F
S11307701B88DB05DB0D9AB2FB681A830023180083
S1130780BD4604B080BDC046F106000080B584B00B
S113079000AF786039607B681B68BB607B681800B9
S11307A01B4B984703001A0001235340DBB2002B74
S11307B001D0102328E00F23FB1800221A70BB6815
S11307C01B8A9BB21A000423134006D00F23FB1884
S11307D01E221A70BB6804221A827B689B79012B43
S11307E008D1BB681B8B9BB2DB05DB0D9AB23B685F
S11307F01A8006E0BB681B8B9BB2DBB29AB23B68E3
S11308001A800F23FB181B781800BD4604B080BD66
S11308101907000080B584B000AF78607B681B685E
S1130820FB60FB6802229A73C046BD4604B080BDDB
S113083090B593B000AF786039607B681B687B63C8
S11308407B681B683B631C23FB181800794B984793
S11308501C23FB1800225A703B681B78002B03D121
S11308601C23FB1800229A703B685A6A0C23FB185D
S11308701A603B689A6A0C23FB185A603B68DA6A70
S11308800C23FB189A603B681A6B0C23FB18DA6084
S11308904723FB1800221A702CE04723FB181A7810
S11308A00C23FB189200D3583B643B6C002B09D1FA
S11308B04723FB181A783B6B110018005E4B9847CE
S11308C003003B643B6C01330DD03B6CDAB21C2358
S11308D0FB181A703B6C1B0CDBB21C22BA181100FB
S11308E01800564B98474723FB181A784723FB18E0
S11308F001321A704723FB181B78032BCDD93B68B0
S11309001A787B685A713B681A7C7B689A713B68D9
S11309109A7C7B68DA710A23FB1800221A80002370
S1130920FB630023BB633B681B78012B29D17B68E5
S11309301B681800424B98470300FB62FB6A0D33A7
S1130940BB62BB6ADBB218003E4B984703007B6274
S11309503B685B692322BC180A22BA18796A18001A
S1130960394B9847030023702323FB181B78002B73
S113097001D017235AE00A23FB181B88DAB27B6BD9
S11309809A723B681B78002B19D13B685B69FB6347
S11309903B681B8BBB637B6B5B693A68927E11007F
S11309A03A68D27E12040A431A437B6B5A613B684D
S11309B01B7F002B03D0BB6B40221343BB633B68FC
S11309C05B68FA6B1343FB633B689B68FA6B1343E6
S11309D0FB633B68DB68FA6B1343FB633B681B7C7C
S11309E01A00BB6B1343BB633B685B7C002B03D1D6
S11309F0164B9847031E03D0FB6B80221343FB6303
S1130A003B689B7C002B04D0BB6B80229202134377
S1130A10BB637B6B1A68FB6B1A437B6B1A607B6B43
S1130A205A68BB6B1A437B6B5A6000231800BD469F
S1130A3013B090BDB9040000AD0200002D270000E2
S1130A406904000065250000A3010000A906000058
S1130A5090B591B000AF786039607B681B68FB6229
S1130A607B681B68BB623B685A6A0C23FB181A60DC
S1130A703B689A6A0C23FB185A603B68DA6A0C23B9
S1130A80FB189A603B681A6B0C23FB18DA603F234F
S1130A90FB1800221A7030E03F23FB181A780C234D
S1130AA0FB189200D358BB63BB6B002B09D13F23C7
S1130AB0FB181A78BB6A11001800644B98470300AE
S1130AC0BB63BB6B013310D0BB6B1B041C0CBB6B37
S1130AD01B0CDBB218005E4B984703009C4205D008
S1130AE07B6800221A601C23ACE0C0463F23FB183D
S1130AF01A783F23FB1801321A703F23FB181B7826
S1130B00032BC9D90C20534B984703007B62002365
S1130B107B6300233B6300233B623B681B78012B10
S1130B2021D13B685B691F22BC180A22BA18796A72
S1130B301800494B9847030023701F23FB181B78A8
S1130B40002B01D017237DE0FB6A9B7ADAB20A23DB
S1130B50FB181B88DBB29A4201D01C2372E07B6B2A
S1130B600C2213437B633B681B78002B28D13B6822
S1130B705B697A6B13437B633B681B8B1A003B6B8B
S1130B8013433B633B689B7E1A003B68DB7E1B047C
S1130B9013431A003B6A13433B62FB6A1A683B6ABD
S1130BA09A4201D01C234DE03B681B7F002B03D0ED
S1130BB03B6B402213433B637B6B082213437B63F1
S1130BC03B685B687A6B13437B633B689B687A6B17
S1130BD013437B633B68DB687A6B13437B633B683B
S1130BE01B7C1A003B6B13433B633B685B7C002B11
S1130BF003D07B6B802213437B633B689B7C002B7D
S1130C0004D03B6B8022920213433B637B6B022232
S1130C1013437B63FB6A1A687B6B9A420ED1FB6AAF
S1130C205A683B6B9A4209D13B681A787B685A71BF
S1130C303B681A7C7B689A71002303E07B6800227E
S1130C401A601C231800BD4611B090BDAD0200000F
S1130C504105000065250000A301000080B58AB0AD
S1130C6000AFF860B9607A60FB68BA681A60FB6824
S1130C701B687B627B6A1B680222134007D07A6878
S1130C80FB68110018002F4B9847030055E07B6A5E
S1130C901B680122134001D005234EE0FB681B684A
S1130CA01800294B984703003B623B6A0233FB61FF
S1130CB03B6A0D33BB610122FB699A4013001900A2
S1130CC00220224B98471423FB181800204B984706
S1130CD07B6820229A5C1423FB181A70BB69DBB270
S1130CE01422BA18110018001A4B9847BB69DBB2DA
S1130CF01800194B98477B6820229B5C0021180040
S1130D00164B98477B681B78012B05D17B6A1B68BF
S1130D100C221A437B6A1A607B681B78002B05D16E
S1130D207B6A1B6808221A437B6A1A607A68FB682C
S1130D30110018000A4B984703001800BD460AB07A
S1130D4080BDC046510A0000690400004D06000041
S1130D503506000041240000852400002102000023
S1130D603108000090B589B000AFF860B96019008F
S1130D70BB1D1A803B1D0A1C1A80BB1D1B88002B3F
S1130D8001D11723B2E0FB68DB7901225340DBB2C7
S1130D90002B01D01C23A9E0FB685B79002B09D14F
S1130DA0FB681800534B9847031E03D0FB681800D8
S1130DB0514B98471E23FB1800221A808DE0FB68D4
S1130DC05B79012B12D1C046FB6818004B4B984746
S1130DD003001A0001235340DBB2002BF4D13B1D66
S1130DE01A88FB6811001800454B9847FB685B792B
S1130DF0002B2AD10023BB6108E0FB681800414B9B
S1130E009847031E07D1BB690133BB61BB693E4AE6
S1130E109342F2D900E0C046FB681800354B98476E
S1130E20031E05D0FB681800334B984704235DE08C
S1130E30FB681800334B984703001A000123534002
S1130E40DBB2002B01D0122350E0C046FB6818002F
S1130E502C4B984703001A0001235340DBB2002BAC
S1130E60F4D11423FB1800221A801723FC1814232E
S1130E70FA18FB6811001800244B984703002370EC
S1130E801723FB181B78002B03D01723FB181B78A0
S1130E902CE01E23FB181B881E22BA18591C118033
S1130EA01A00BB689B181422BA181288D2B21A709E
S1130EB0FB689B79012B10D11E23FB181B881E2273
S1130EC0BA18591C11801A00BB689B181422BA184E
S1130ED01288120A92B2D2B21A70BB1D1B88BA1DB4
S1130EE0591E1180002B00D069E700231800BD466D
S1130EF009B090BDC906000015080000F106000005
S1130F004107000019070000102700008D070000AA
S1130F1080B586B000AFF860B960FB1D1A70FB683D
S1130F205B79012B01D0152355E0FB1D1B78002BA9
S1130F304AD0BB685B78002B3FD0FB681800284B75
S1130F40984703001A0001235340DBB2002B07D05B
S1130F50BB681B7801211800224B984705233AE00F
S1130F60BB681B78002118001E4B9847BB689B7810
S1130F709AB2FB68110018001B4B9847FB68DB7999
S1130F8001225340DBB2002B24D0C046FB6818007A
S1130F90164B984703001A0001235340DBB2002B81
S1130FA0F4D11623FB1800221A801623FA18FB68C2
S1130FB0110018000E4B98470CE0BB681B78002109
S1130FC01800084B984705E0BB681B7801211800FE
S1130FD0044B984700231800BD4606B080BDC046A8
S1130FE0F1060000E10500004107000019070000B8
S1130FF08D07000080B58AB000AFF860B960BB1DF2
S11310001A80BB1D1B88002B01D117236AE1FB68E2
S11310105B79002B09D1FB681800B44B9847031E79
S113102003D0FB681800B24B98472623FB18002214
S11310301A802423FB18BA1D12881A80FEE0FB686C
S11310405B79002B2AD100233B6208E0FB6818007F
S1131050A84B9847031E07D13B6A01333B623B6AA6
S1131060A54A9342F2D900E0C046FB6818009F4BA2
S11310709847031E05D0FB6818009D4B984704232E
S113108030E1FB6818009B4B984703001A000123CA
S11310905340DBB2002B01D0122323E1C046FB688E
S11310A01800944B984703001A0001235340DBB205
S11310B0002BF4D12623FB181B882622BA18591CAE
S11310C011801A00BB689B181A781E23FB181A801B
S11310D0FB689B79012B15D12623FB181B8826223C
S11310E0BA18591C11801A00BB689B181B781B0284
S11310F01AB21E23FB1800215B5E13431AB21E238F
S1131100FB181A801E23FB181A88FB6811001800AC
S11311107A4B9847FB68DB792422BA182421791882
S113112009881180002B00D188E0FB685B79002BD3
S113113000D069E00023BB6147E0BB1D1B88002B86
S11311403AD0FB6818006B4B9847031E34D0262313
S1131150FB181B882622BA18591C11801A00BB6878
S11311609B181A781E23FB181A80FB689B79012BA5
S113117015D12623FB181B882622BA18591C118066
S11311801A00BB689B181B781B021AB21E23FB189B
S113119000215B5E13431AB21E23FB181A801E2320
S11311A0FB181A88FB6811001800544B9847BB1DA4
S11311B01A88BB1D013A1A80FB681800504B9847E7
S11311C0031E07D1BB690133BB61BB694A4A934221
S11311D0B3D900E0C046FB681800444B9847031E8F
S11311E005D0FB681800424B984704237AE0FB685B
S11311F01800434B984703001A0001235340DBB205
S1131200002B01D012236DE0C046FB6818003C4B54
S1131210984703001A0001235340DBB2002BF4D19A
S11312201223FA18FB6811001800364B9847242340
S1131230FB181A882423FB18013A1A80BB1D1B884B
S1131240BA1D591E1180002B00D0F8E6FB685B79AB
S1131250012B0BD1C046FB681800244B98470300B0
S11312601A0001235340DBB2002BF4D1FB685B79F5
S1131270002B36D1FB68DB79002B32D02CE0002325
S11312807B6108E0FB6818001D4B9847031E07D1DB
S11312907B6901337B617B69174A9342F2D900E091
S11312A0C046FB681800164B984703001A00012338
S11312B05340DBB2002B01D0122313E01023FA18A1
S11312C0FB68110018000F4B98472423FB181A8859
S11312D02423FB18013A1A802423FB181B88002BB3
S11312E0CDD100231800BD460AB080BDC906000058
S11312F015080000F1060000102700004107000057
S1131300190700008D07000080B584B000AF02000B
S1131310FB1D1A700F23FB18FA1D1278D2091A70DC
S11313200E23FB18FA1D127852091A700D4BBB607C
S11313300F23FB181B78002B0FD10F23FB181B78EE
S11313409B0010229446BC446344083B1A680E2355
S1131350FB181B78DB01D31800E000231800BD46FE
S113136004B080BD0044004180B582B000AF0200EB
S1131370FB1D1A70FB1D1B781800034B98470300D4
S11313801800BD4602B080BD0913000080B584B0CA
S113139000AF0200FB1D1A70BB1D0A1C1A70FB1D56
S11313A01B7818000D4B98470300FB60FB1D1B784E
S11313B01F22134001229A401300BB60BB1D1B78FF
S11313C0002B03D0FB68BA689A6102E0FB68BA6834
S11313D05A61C046BD4604B080BDC04669130000D2
S11313E080B584B000AF78600A00BB1C1A80BB1CB7
S11313F01A887968054B1800054B98470300FB6071
S1131400FB681800BD4604B080BDC04658000020EB
S1131410F50F000080B582B000AF78607B680121D1
S11314201800034B984703001800BD4602B080BD66
S1131430E113000090B583B000AF7860080011009C
S1131440BB1C021C1A803B000A1C1A800F49104B5B
S1131450012218000F4B984739000D4B0122180048
S11314600D4B98473B001C88BB1C1A8879680848B8
S113147023000A4CA0470549054B00221800054BE0
S11314809847C046BD4603B090BDC04654000020F6
S113149058000020110F0000F50F0000650D00003A
S11314A080B500AF0449054B01221800044B98474E
S11314B0C046BD4680BDC0465400002058000020F0
S11314C0110F000080B500AF0449054B002218003D
S11314D0044B9847C046BD4680BDC046540000201A
S11314E058000020110F000080B500AF01212B200F
S11314F0024B9847C046BD4680BDC0468D130000D0
S113150080B500AF00212B20024B9847C046BD4652
S113151080BDC0468D13000080B582B000AF7860F6
S11315201B4B984701201B4B9847032120201A4B43
S1131530984703212220184B984703212120164B5A
S1131540984702212320144B98477B681A000521F1
S11315502A20124B98477B680433A1221A707B68B7
S11315601A0005212B200D4B984704213D200A4BDE
S1131570984701213C20084B984702213C20064B08
S11315809847074B9847C046BD4602B080BDC04649
S113159001150000491A00006D1600000116000034
S11315A0E914000080B586B000AFF860B9607A60D5
S11315B000237B61BB6899B2FB689AB27B68180010
S11315C0034B98477B691800BD4606B080BDC046F2
S11315D03514000080B584B000AF78607B689AB29F
S11315E00F23FB1801211800044B98470F23FB1805
S11315F01B781800BD4604B080BDC04635140000F9
S113160080B588B000AFF860B9607A600023FB61F0
S11316107B68BB6100237B61114B98470C23FB184B
S11316201800104B98470300FB6100237B610BE01B
S1131630BB6918000B4B98470300FB61BB6901337E
S1131640BB617B6901337B617A69BB689A42EFD3E2
S1131650054B9847FB691800BD4608B080BDC046DD
S1131660A114000015140000C514000080B582B058
S113167000AF78600A00FB1C1A70FA1C7B68012119
S11316801800034B984703001800BD4602B080BD04
S11316900116000080B582B000AF78607B6800223C
S11316A000211800034B984703001800BD4602B000
S11316B080BDC0460116000080B584B000AF0200B2
S11316C0FB1D1A700F23FB18FA1D1278D2091A7029
S11316D00E23FB18FA1D127852091A700D4BBB60C9
S11316E00F23FB181B78002B0FD10F23FB181B783B
S11316F09B0010229446BC446344083B1A680E23A2
S1131700FB181B78DB01D31800E000231800BD464A
S113171004B080BD0044004180B582B000AF020037
S1131720FB1D1A70FB1D1B781800034B9847030020
S11317301800BD4602B080BDB916000080B582B065
S113174000AF78607B6800221A707B6801225A70AF
S11317507B6800229A70C046BD4602B080BD00007E
S113176080B584B000AF0200FB1D1A70BB1D0A1CBB
S11317701A70FB1D1B7818000D4B98470300FB6083
S1131780FB1D1B781F22134001229A401300BB60EB
S1131790BB1D1B78002B03D0FB68BA689A6102E07A
S11317A0FB68BA685A61C046BD4604B080BDC046F5
S11317B01917000080B584B000AF78607B681B689F
S11317C0FB60FB681B8A9BB21A0080231B02134038
S11317D05A1E9341DBB21800BD4604B080BD000020
S11317E080B582B000AF78607B6801221A707B6894
S11317F000225A607B6800229A607B68C0229203B0
S1131800DA607B6800221A747B6800225A747B6851
S113181001229A747B682022002199547B68143336
S11318200C22002118000A4B98477B68094A5A6128
S11318307B6800225A627B6800229A627B680022DD
S1131840DA627B6800221A63C046BD4602B080BDDE
S1131850352D0000A086010080B582B000AF78600D
S11318607B680A221A707B6800225A707B68002207
S11318709A70C046BD4602B080BD000080B584B0F9
S113188000AF786039603B681A787B681A703B68EF
S11318905A787B685A703B689A787B689A700C23F4
S11318A0FB1818000B4B98470C23FB1801221A70E5
S11318B07B681B780C22BA1811001800064B984755
S11318C07B681B7801211800044B9847C046BD462D
S11318D004B080BD3D1700002D0100006117000019
S11318E080B584B000AF78607B681B68FB60C0463D
S11318F07B681800064B9847031EF9D1FB681B68E8
S113190002221A43FB681A60C046BD4604B080BD7B
S1131910B517000080B590B000AF3B1D18001C4BFC
S113192098473B1D0A221A703A1D1A4B11001800E1
S1131930194B98470C23FB181800184B98470C2395
S1131940FB18C0229203DA600C23FB18144A5A6273
S11319500C23FB18134A9A620C23FB1801225242EF
S1131960DA620C23FB18104A1A630C23FB180122B9
S11319709A740C23FA180D490D4B18000D4B984717
S11319800B4B18000C4B9847C046BD4610B080BDA9
S113199059180000540000207D180000E1170000D1
S11319A0030008000300090003000B0000100042BC
S11319B0580000205D0C0000E118000080B582B0E2
S11319C000AF78607B68002B0CD0084B7A685A60B3
S11319D0064B00229A60C046044B1A6880235B02BF
S11319E01340F9D0C046BD4602B080BD10E000E00F
S11319F080B500AF00200F4B984702000E4B1A60D1
S1131A000D4B18680D4BFA229100984703001A00F9
S1131A10094B1A60084B1868084BFA229100984742
S1131A2003001A00064B1A60064B05221A60C046D2
S1131A30BD4680BD6923000000000020012A00008B
S1131A400400002010E000E080B582B000AF7860B0
S1131A5004E0074B1B681800064B98477B685A1E26
S1131A607A60002BF5D1C046BD4602B080BDC046A9
S1131A7000000020BD19000080B500AF5349B42216
S1131A808B5C0F208343181C052303438B544F495D
S1131A90C8228B5C012003438B544D4A136A802176
S1131AA049010B4313624B4B4B4A5A804B4A93797F
S1131AB001210B439371494A13880C218B431380F2
S1131AC0464A138846490B401380444A13886021D0
S1131AD08B43191C40230B431380404B01221A8370
S1131AE03E4A138802210B4313803849B5228B5C8C
S1131AF00F208343181C052303438B543349CA2204
S1131B008B5C012003438B54314A136A8021890181
S1131B100B4313622F4B304A5A80324A9379012186
S1131B200B4393712F4A13880C218B4313802D4A46
S1131B3013882B490B4013802A4A138860218B4356
S1131B40191C40230B431380264B01221A83254A78
S1131B50138802210B4313801C4936228B5C0F200F
S1131B608343181C042303438B5418494C228B5C75
S1131B70012003438B54164A136A8021C9000B4386
S1131B801362144B184A5A80184A937901210B4363
S1131B909371164A13880C218B431380134A1388BC
S1131BA00F490B401380114A138860218B43191C81
S1131BB040230B4313800D4B01221A830B4A1388D5
S1131BC002210B431380C046BD4680BD0044004142
S1131BD000040040000C00401540000000300042AA
S1131BE0FFF8FFFF003400421440000000280042C8
S1131BF080B582B000AF7860164A7B681B0C9BB23C
S1131C00FF210B409BB2191C8900C918C900CB1ACB
S1131C109BB21383104A7B681B0A9BB2FF210B40C3
S1131C209BB2191C8900C918C900CB1A9BB2138333
S1131C300A4A7B689BB2FF210B409BB2191C8900A6
S1131C40C918C900CB1A9BB21383C046BD4602B063
S1131C5080BDC046003000420034004200280042EB
S1131C6080B500AFC046BD4680BD000080B582B0DF
S1131C7000AF104B1B68002B12D1EFF310837B6075
S1131C807B68002B09D172B6BFF35F8F0A4B002229
S1131C901A700A4B01221A7002E0084B00221A70D3
S1131CA0044B1B685A1C034B1A60C046BD4602B065
S1131CB080BDC04638000020080000203C00002001
S1131CC080B500AF0B4B1B685A1E0A4B1A60094BB8
S1131CD01B68002B0AD1084B1B78DBB2002B05D004
S1131CE0064B01221A70BFF35F8F62B6C046BD4631
S1131CF080BDC046380000203C00002008000020C1
S1131D0080B582B000AF78607B6801225A607B683E
S1131D1000225A707B6806221A707B6800221A72AD
S1131D207B6800225A72C046BD4602B080BD80B5B1
S1131D3082B000AF78607B6803221A707B6800224F
S1131D405A707B6801229A70C046BD4602B080BDBD
S1131D5080B582B000AF0200FB1D1A70034AFB1D60
S1131D601B781372C046BD4602B080BD000400401B
S1131D7080B582B000AF0200FB1D1A70BB1D0A1CA7
S1131D801A70FB1D1B78012B08D0022B0BD0002BE3
S1131D900ED10B4ABB1D1B7853720BE0084ABB1DC6
S1131DA01B78937206E0064ABB1D1B78D37201E0D0
S1131DB0172300E000231800BD4602B080BDC046D2
S1131DC00004004080B582B000AF0200FB1D1A7011
S1131DD0084AFB1D1B780F210B40D9B253680F2012
S1131DE0014049001E2083430B435360C046BD4657
S1131DF002B080BD0040004180B500AFC046044B36
S1131E00DB6810221340FAD0C046BD4680BDC046F0
S1131E100008004080B500AF0C4A0D4B1B689BB214
S1131E2080218B439BB293840A4B9847074A084B03
S1131E309B68D362054A064B5B689362034A044B72
S1131E401B689BB29384C046BD4680BD0008004019
S1131E5040000020F91D000080B582B000AF0200F0
S1131E60FB1D1A70FB1D1B78072B33D89A001C4BE3
S1131E70D3181B689F461B4BDB682CE01A4B1B6A6C
S1131E809B059B0FDBB21A00184BD34023E0802341
S1131E901B0220E080231B021DE0124B1B691AE089
S1131EA0104B1B680222134001D1002313E0104B96
S1131EB098470C4B1B680422134009D000200D4B9B
S1131EC098470200074B9B681B041B0C534302E01A
S1131ED0094B00E000231800BD4602B080BDC04697
S1131EE05C2D0000400000200008004000127A0031
S1131EF0F91D000065250000006CDC0280B584B08B
S1131F0000AF78601A4B1B6AFB607B681B781A1C55
S1131F1003231340DAB20D23FB1803210A401000F7
S1131F201A7803218A43111C021C0A431A707B6825
S1131F309A780C23FB18D0011A787F210A40111CCF
S1131F40021C0A431A707B685A780C23FB1801217F
S1131F500A4090011A7840218A43111C021C0A434A
S1131F601A70034BFA681A62C046BD4604B080BDBD
S1131F700008004080B582B000AF0200FB1D1A705B
S1131F80FB1D1B78072B30D89A001B4BD3181B68FA
S1131F909F461A4B194A126A02210A431A62002305
S1131FA026E0164B154A926902210A439A611EE003
S1131FB0124A124B1B8A9BB202210B439BB213821F
S1131FC015E00E4A0D4B9B8A9BB202210B439BB238
S1131FD093820CE00A4B1B6802221A43084B1A60D6
S1131FE0084B984703E0002302E0172300E0002396
S1131FF01800BD4602B080BD7C2D000000080040E2
S113200040000020151E000080B582B000AF3B00E8
S113201001221A7000237B6009E07B68DBB23A007E
S113202011001800054B98477B6801337B607B687F
S11320301B2BF2D9C046BD4602B080BD412400002E
S113204080B59CB000AF274BC222D2009A6000201A
S1132050254B9847254B98476C23FB181800244BB5
S113206098476C23FB1800221A706C23FB1801227A
S11320709A706C23FB1800225A706C23FB1818000A
S11320801C4B984706201C4B98471C4B9847002034
S11320901B4B9847002100201A4B98470021012030
S11320A0184B984700210220164B98473B00180014
S11320B0154B98473B0006221A703B0001225A60D8
S11320C03B0000221A723B0000225A723B001900A6
S11320D000200E4B984700200D4B9847C046BD4644
S11320E01CB080BD00080040C51D00000920000090
S11320F02F1D0000FD1E0000751F0000B921000007
S1132100511D0000711D0000011D0000E9210000A7
S11321100D23000080B582B000AF02003960FB1DC2
S11321201A70FB1D1B78012B0AD0022B0FD0002B39
S113213014D10E4B0D4A91693A680A439A610FE033
S11321400A4B0A4AD1693A680A43DA6108E0074B44
S1132150064A116A3A680A431A6201E0172300E04A
S113216000231800BD4602B080BDC04600040040F4
S113217080B500AF024B9847C046BD4680BDC046FF
S11321806D1C000080B500AF024B9847C046BD46A9
S113219080BDC046C11C000080B500AF054B5B7814
S11321A0DBB25BB2002B01DA012300E0002318004C
S11321B0BD4680BD000C004080B500AF0821002062
S11321C0074B9847074B01221A70C046054B1B78F2
S11321D0DBB21A0001231340F8D1C046BD4680BDCE
S11321E015210000000C004080B586B000AF02004D
S11321F03960FB1D1A70FB1D1B787B61FB1D1B786E
S11322003B613B681B781B021A007B6913437B61AB
S11322103B685B78002B04D07B698022D202134395
S11322207B613B685B7A002B04D07B6980221203BC
S113223013437B613B685B68012B2CD93B685A686C
S11322403B685B68013B13401AD10023FB60022307
S1132250BB6005E0FB680133FB60BB685B00BB60EF
S11322603B685A68BB689A42F4D8FB681B023A6917
S113227013433B617B698022520313437B610AE071
S11322803B685B681B023A6913433B617B698022AC
S1132290920213437B613B681B7A002B04D07B6959
S11322A08022920313437B61C046134B9847031E5D
S11322B0FBD1124B9847124AFB1D1B781370C04682
S11322C00D4B9847031EFBD10E4B3A699A60C046EA
S11322D0094B9847031EFBD10A4B0A4A51688022D6
S11322E0520211407A690A435A60074B9847C04624
S11322F0BD4606B080BDC046992100007121000092
S1132300080C0040000C00408521000080B582B01C
S113231000AF0200FB1D1A70C0460E4B9847031E07
S1132320FBD10D4B98470D4AFB1D1B781370C0461B
S1132330084B9847031EFBD1094B094A5268802178
S113234049020A435A60074B9847C046BD4602B04B
S113235080BDC0469921000071210000040C00409A
S1132360000C00408521000080B586B000AF02005B
S1132370FB1D1A70C0462A4B9847031EFBD1294BFC
S11323809847294AFB1D1B781370C046244B984775
S1132390031EFBD1254B5B68DB04DB0EDBB21800AC
S11323A0234B984703007B611F4AFB1D1B78137066
S11323B01E4B5B68DB02DB0FDAB21323FB181A70C7
S11323C01C4AFB1D1B781370C046154B9847031E0F
S11323D0FBD1164B9B681B021B0C9BB2FB60164B7C
S11323E098471323FB181B78002B09D1FB68012B9A
S11323F006D9124BF9687869984703007B610AE0B3
S11324001323FB181B78002B05D0FB6801337A6972
S1132410DA4013007B617B691800BD4606B080BDBD
S11324209921000071210000040C0040000C0040C0
S1132430591E0000080C004085210000012A0000FC
S113244080B584B000AF02003960FB1D1A70FB1D1B
S11324501B78FB603B681B781B021A00FB68134364
S1132460FB60FB1D1B781800044B9847044BFA686B
S113247092B25A80C046BD4604B080BDCD2400004F
S1132480000C004080B582B000AF0200FB1D1A7042
S11324900A4B98470A4AFB1D1B7813700949094BDC
S11324A05B889BB28022D20113439BB24B80064BC4
S11324B09847C046BD4602B080BDC04671210000A9
S11324C0020C0040000C00408521000080B584B05F
S11324D000AF0200FB1D1A701C4B98471C4AFB1DE1
S11324E01B7813701B4B5B881B051B0FDBB2FB6057
S11324F0184A538818490B405380164A154B5B8879
S11325009BB216490B409BB25380C046114B5B886B
S11325109BB21A008023DB011340F7D10D4AFB68FC
S1132520DBB2191C0F230B40D9B25388081C0F21AE
S11325300140080208490B40191C031C0B4353803B
S1132540074B9847C046BD4604B080BD71210000CA
S1132550020C0040000C0040FFF0FFFFFFBFFFFF34
S11325608521000080B584B000AF0200FB1D1A7005
S11325700D4B98470D4AFB1D1B7813700C4B5B8861
S11325801B051B0FDAB20F23FB181A70094B98476F
S11325900F23FB181B781800074B984703001800FB
S11325A0BD4604B080BDC04671210000020C00404D
S11325B0000C0040852100006923000080B584B030
S11325C000AF0200FB1D1A700F23FB18FA1D1278CE
S11325D0D2091A700E23FB18FA1D127852091A70C8
S11325E00D4BBB600F23FB181B78002B0FD10F235F
S11325F0FB181B789B0010229446BC446344083BA0
S11326001A680E23FB181B78DB01D31800E00023A3
S11326101800BD4604B080BD0044004180B588B0B8
S113262000AFF860B9607A600023FB617B68DB78F7
S113263001225340DBB2002B35D07B681B78802B02
S11326400BD0FB69802252021343FB617B681B7829
S11326501B061A00FB691343FB617B685B78002B44
S113266003D07B685B78022B10D1FB698022920235
S11326701343FB617B689B78002B04D0FB698022A9
S1132680D2021343FB61FB68BA685A607B685B78CB
S1132690012B03D07B685B78022B07D1FB69224AAC
S11326A01340FB6102E0FB68BA685A60BB681B0414
S11326B01B0CBB61BB681B0C7B61BA69FB691343D0
S11326C0A022D2051A43FB689A627A69FB69134314
S11326D0D02212061A43FB689A627B68DB780122D7
S11326E05340DBB2002B1AD0FA698023DB0213407B
S11326F00AD07B689B78012B03D1FB68BA689A6186
S113270002E0FB68BA685A617B685B78012B03D0EE
S11327107B685B78022B02D1FB68BA689A60C0467A
S1132720BD4608B080BDC046FFFFFBFF80B584B046
S113273000AF02003960FB1D1A70FB1D1B781800E6
S11327400A4B98470300FB60FB1D1B781F221340B4
S113275001229A401300BB603A68B968FB6818000C
S1132760034B9847C046BD4604B080BDBD2500005C
S11327701D26000080B500AFC046BD4680BD0000E8
S113278080B500AF064B9847064B9847064B9847D1
S1132790064B9847064B9847C046BD4680BDC04689
S11327A041200000611C000075270000752700000F
S11327B07527000080B582B000AF194B7B60194BC0
S11327C03B607A683B689A420CD007E03B681A1D6C
S11327D03A607A68111D796012681A603A68124B7F
S11327E09A42F3D3114B3B6004E03B681A1D3A60F4
S11327F000221A603A680E4B9A42F6D30D4B7B6066
S11328000D4B7A68FF218A439A600C4A53688021F1
S11328100B4353600A4B98470A4B9847FEE7C04660
S1132820BC2D00000000002018000020180000202B
S1132830940000200000000000ED00E00040004192
S1132840ED2C0000C128000080B582B000AFEFF38A
S113285005837B607A68014B1A60F8E70C0000205E
S113286080B588B000AF786039600023FB610CE06C
S1132870FB693A68D31819780C23FA18FB69D31842
S11328800A1C1A70FB690133FB61FB690F2BEFDD36
S11328900C23FB181A687B681A600C23FB185A680F
S11328A07B685A600C23FB18DA687B68DA600C23B7
S11328B0FB189A687B689A60C046BD4608B080BD24
S11328C080B58AB000AF394B9847394B9847394B9C
S11328D09847394B9847394B1800394B9847394B2F
S11328E07B62384B1A683B1D1A60374B1A683B1DD4
S11328F05A60364B1A683B1D9A60354B1A683B1D6B
S1132900DA6000233B620023FB61FF20314B9847D0
S1132910FA239B001800304B984707202F4B984709
S113292003003B623B6A40221340F6D03B6AFF2B14
S1132930F3D06020294B98470300FB61FB691F2BF0
S113294002D9E220264B98476020244B9847030085
S1132950FB61244AFB6919006120234B98474021FD
S11329602720224B9847E2201D4B9847204A214BB1
S113297011001800204B98471E4B1A681F4B322138
S11329801000984703001A001B23FB181A701B231E
S1132990FB181B781B041A00FF231B0413407B61E4
S11329A07B6918000B4B9847B7E7C04681270000A6
S11329B0F1190000791A0000151900001000002018
S11329C0191500000CA0800040A0800044A08000E5
S11329D048A08000F11B0000491A0000D515000032
S11329E09516000070000020A51500006D1600006B
S11329F0740000206000002061280000152B0000F6
S1132A00002243088B4274D303098B425FD3030A29
S1132A108B4244D3030B8B4228D3030C8B420DD33C
S1132A20FF22090212BA030C8B4202D312120902CA
S1132A3065D0030B8B4219D300E0090AC30B8B4208
S1132A4001D3CB03C01A5241830B8B4201D38B03B6
S1132A50C01A5241430B8B4201D34B03C01A52415B
S1132A60030B8B4201D30B03C01A5241C30A8B429E
S1132A7001D3CB02C01A5241830A8B4201D38B0289
S1132A80C01A5241430A8B4201D34B02C01A52412D
S1132A90030A8B4201D30B02C01A5241CDD2C3099F
S1132AA08B4201D3CB01C01A524183098B4201D31B
S1132AB08B01C01A524143098B4201D34B01C01A06
S1132AC0524103098B4201D30B01C01A5241C3087E
S1132AD08B4201D3CB00C01A524183088B4201D3ED
S1132AE08B00C01A524143088B4201D34B00C01AD9
S1132AF05241411A00D20146524110467047FFE745
S1132B0001B5002000F0F0F802BDC0460029F7D05E
S1132B1076E7704703460B437FD4002243088B4279
S1132B2074D303098B425FD3030A8B4244D3030B50
S1132B308B4228D3030C8B420DD3FF22090212BA15
S1132B40030C8B4202D31212090265D0030B8B4291
S1132B5019D300E0090AC30B8B4201D3CB03C01A7B
S1132B605241830B8B4201D38B03C01A5241430B56
S1132B708B4201D34B03C01A5241030B8B4201D346
S1132B800B03C01A5241C30A8B4201D3CB02C01AB1
S1132B905241830A8B4201D38B02C01A5241430A29
S1132BA08B4201D34B02C01A5241030A8B4201D318
S1132BB00B02C01A5241CDD2C3098B4201D3CB01BF
S1132BC0C01A524183098B4201D38B01C01A52416E
S1132BD043098B4201D34B01C01A524103098B4272
S1132BE001D30B01C01A5241C3088B4201D3CB005D
S1132BF0C01A524183088B4201D38B00C01A524140
S1132C0043088B4201D34B00C01A5241411A00D2EF
S1132C1001465241104670475DE0CA0F00D0494258
S1132C20031000D34042534000229C4603098B42C8
S1132C302DD3030A8B4212D3FC22890112BA030A50
S1132C408B420CD3890192118B4208D389019211D2
S1132C508B4204D389013AD0921100E08909C30957
S1132C608B4201D3CB01C01A524183098B4201D359
S1132C708B01C01A524143098B4201D34B01C01A44
S1132C80524103098B4201D30B01C01A5241C308BC
S1132C908B4201D3CB00C01A524183088B4201D32B
S1132CA08B00C01A5241D9D243088B4201D34B0046
S1132CB0C01A5241411A00D20146634652415B1088
S1132CC0104601D34042002B00D549427047634669
S1132CD05B1000D3404201B5002000F005F802BDAE
S1132CE00029F8D016E770477047C04670B5002633
S1132CF00C4D0D4C641BA410A64209D1002600F013
S1132D004DF80A4D0A4C641BA410A64205D170BDAF
S1132D10B300EB5898470136EEE7B300EB589847F9
S1132D200136F2E7A82D0000A82D0000A82D000010
S1132D30AC2D000003008218934200D17047197033
S1132D400133F9E700080042000C00420010004281
S1132D500014004200180042001C0042761E0000CD
S1132D60D41E0000D41E0000941E00008E1E00001D
S1132D709A1E00007C1E0000A01E0000B01F000070
S1132D80EA1F0000EA1F0000E61F0000A21F000067
S1132D90C21F0000921F0000D41F0000F8B5C046F7
S1132DA0F8BC08BC9E467047CD000000F8B5C0468C
S10F2DB0F8BC08BC9E467047A50000005B
S1132DBC401F000008000000010000000F27000065
S10B2DCC2A2A2A2A0000000053
S90327B520
